{
  "address": "0x4B5B687f4A41e846e97Fd8142311340e36a33b38",
  "abi": [
    {
      "inputs": [],
      "stateMutability": "nonpayable",
      "type": "constructor"
    },
    {
      "inputs": [],
      "name": "balance",
      "outputs": [
        {
          "internalType": "uint256",
          "name": "",
          "type": "uint256"
        }
      ],
      "stateMutability": "view",
      "type": "function"
    },
    {
      "inputs": [],
      "name": "withdraw",
      "outputs": [],
      "stateMutability": "nonpayable",
      "type": "function"
    },
    {
      "stateMutability": "payable",
      "type": "receive"
    }
  ],
  "transactionHash": "0xbaea056fe3c7fdf0c0436adc7b199b0249d64a4fba3acab85b82b5ddad5fd8a6",
  "args": [],
  "numDeployments": 1,
  "solcInputHash": "2499562fb6cf06b46afab60bb7450d5e",
  "bytecode": "0x608060405234801561001057600080fd5b50600080546001600160a01b03191633179055610123806100326000396000f3fe608060405260043610602a5760003560e01c80633ccfd60b146035578063b69ef8a814604957600080fd5b36603057005b600080fd5b348015604057600080fd5b5060476068565b005b348015605457600080fd5b504760405190815260200160405180910390f35b6000546001600160a01b0316331460bf5760405162461bcd60e51b81526020600482015260176024820152764f6e6c79206f776e65722063616e20776974686472617760481b604482015260640160405180910390fd5b60405133904780156108fc02916000818181858888f1935050505015801560ea573d6000803e3d6000fd5b5056fea26469706673582212203efc49cd99dbe1fd9c741da9a3a35bb623ad83e2392ce9ceb03ec76a0a6f965a64736f6c63430008090033",
  "devdoc": {
    "kind": "dev",
    "methods": {},
    "version": 1
  },
  "userdoc": {
    "kind": "user",
    "methods": {},
    "version": 1
  },
  "storageLayout": {
    "storage": [
      {
        "astId": 3,
        "contract": "contracts/Treasury.sol:Treasury",
        "label": "owner",
        "offset": 0,
        "slot": "0",
        "type": "t_address"
      }
    ],
    "types": {
      "t_address": {
        "encoding": "inplace",
        "label": "address",
        "numberOfBytes": "20"
      }
    }
  }
}